:1000000000500020A1020000A9020000AD02000083
:100010001D03000021030000690300000000000030
:10002000000000000000000000000000B10300001C
:10003000B503000000000000B9030000BD0300008C
:10004000CD030000CD030000CD030000CD03000070
:10005000CD030000CD030000CD030000CD03000060
:10006000CD030000CD030000CD030000CD03000050
:10007000CD030000CD030000CD030000CD03000040
:10008000CD030000CD030000CD030000CD03000030
:10009000CD030000CD030000CD030000CD03000020
:1000A000CD030000CD030000CD030000CD03000010
:1000B000CD030000CD030000CD030000CD03000000
:1000C000CD030000CD030000CD030000CD030000F0
:1000D000CD030000CD030000CD030000CD030000E0
:1000E000CD030000CD030000CD030000CD030000D0
:1000F000CD030000CD030000CD030000CD030000C0
:10010000CD030000CD030000CD030000CD030000AF
:10011000CD030000CD030000CD030000CD0300009F
:10012000CD030000CD030000CD030000CD0300008F
:10013000CD030000CD030000CD030000CD0300007F
:10014000CD030000CD030000CD030000CD0300006F
:10015000CD030000CD030000CD030000CD0300005F
:10016000CD030000CD030000CD030000CD0300004F
:10017000CD030000CD030000CD030000000000000F
:10018000CD030000CD03000000B583B000F030FACD
:100190003148324B324D334C334A2A609842226008
:1001A00007D2C243134423F0030204322F4925F03F
:1001B00046FB2A682E4B9A4200D0FEE722682D4B60
:1001C0009A42FAD12C482D4B2D4D2E4C264A2A60AE
:1001D0009842226007D2C243134423F00302043240
:1001E000002125F052FB2B6803B1FEE72368002BAA
:1001F000FBD100F009FA01A9684600F04DF9224C44
:10020000224B1A1B032AC8BF1D4604DD54F8043BC9
:100210009847AC42FAD11E4B1E4C1A1B032AC8BF8A
:100220001D4604DD54F8043B9847AC42FAD19DE8E2
:10023000030009F001FF184C184BE21A032A064686
:10024000C8BF1D4604DD54F8043D9847A542FAD1C5
:10025000304600F0F5F800BF00000020AC0100209F
:1002600000000020A8010020BABADECAC035030091
:100270007856341232547698AC010020301B00209E
:10028000AC0100202C1B0020F8030000F803000044
:1002900018040000F80300002804000018040000FF
:1002A00008B5FFF771FF00BF00BEFEE71EF0040FA8
:1002B0000CBFEFF30880EFF309807146404A104706
:1002C0002DE9F043134C676BD4F83880A66A236B92
:1002D0009B0783B08946054602D5E36A002B0CDBF9
:1002E0000D4800F029F9CDF8009043463A463146D2
:1002F000284600F08BF900BEFEE74BF6AB6100F03C
:10030000FFF90028ECD04FF00043E36203B0BDE8F2
:10031000F08300BF00ED00E0F4CF020000BEFEE776
:100320001EF0040F0CBFEFF30880EFF30980714655
:10033000244A10472DE9F041094C82B0666BA76B47
:10034000A56A88460446074800F0F6F8CDF8008014
:100350003B4632462946204600F058F900BEFEE7EB
:1003600000ED00E004D002001EF0040F0CBFEFF31C
:100370000880EFF309807146134A10472DE9F041D8
:10038000094C82B0666BA76BA56A8846044607488D
:1003900000F0D2F8CDF800803B4632462946204690
:1003A00000F034F900BEFEE700ED00E010D00200DE
:1003B00000BEFEE700BEFEE700BEFEE7704700009D
:1003C000C1020000350300007D03000000BEFEE70F
:1003D000C035030000000020AC010020C035030040
:1003E0000000001000000010AC010020301B0020B5
:1003F0000000001000000010AD0900005D120000B8
:10040000219E00006DA0000001EF000029460100C0
:10041000E9A0010015C601004D0A00007913000093
:08042000A19F000079A000007B
:1004300008B5024800F098F800F004F884CE0200F5
:10044000FEE700BF08B5034800F08EF80120FFF773
:10045000F7FF00BF98CE02000C4A08B513688BB1B5
:10046000033020F003000A491844884202D8106083
:10047000184608BD24F0DCF90C2303604FF0FF336D
:10048000184608BD034B1360EAE700BFB001002027
:10049000004C0020301B00200122024B02600B6048
:1004A000704700BF0800002008B524F0C1F95823A8
:1004B00003604FF0FF3008BD08B524F0B9F95823A8
:1004C00003604FF0FF3008BD08B524F0B1F95823A0
:1004D00003604FF0FF3008BD08B524F0A9F9582398
:1004E0000360002008BD00BF08B524F0A1F958231F
:1004F00003604FF0FF3008BD08B524F099F9582388
:1005000003604FF0FF3008BD08B524F091F958237F
:1005100003604FF0FF3008BD08B524F089F9582377
:1005200003604FF0FF3008BD08B524F081F958236F
:1005300003604FF0FF3008BD0FB400B583B004ABCB
:10054000802153F8042B0748019328F065F8002810
:1005500003DD0146034800F017F803B05DF804EB33
:1005600004B07047BC01002010B5044626F0D0FC52
:100570000146204600F008F801210248BDE810407D
:1005800000F002B878F102002DE9F041164F3B6807
:1005900084B080460D468BB101AE0193CDF8088042
:1005A0000395052420463146ABBE0446631C17D094
:1005B000AC4215D0281B04B0BDE8F0810B4B019371
:1005C000042203230292039301240DEB020620462A
:1005D0003146ABBE0446621C02D03C602346DCE7D9
:1005E0004FF0FF30E7E700BF3C020020D4CE02000E
:1005F00008B500F0C1F8024B024A9A6008BD00BF7E
:1006000000ED00E00000000000F0D8B82DE9F8434C
:1006100004462848089F284E914698460D46FFF705
:100620008BFF21682548FFF787FF61682448FFF7A3
:1006300083FFA1682348FFF77FFFE1682248FFF7A7
:100640007BFF21692148FFF777FF61692048FFF7A9
:1006500073FFA1691F48FFF76FFFE1691E48FFF7AD
:100660006BFF1E48FFF768FF29461D48FFF764FF30
:10067000F16A1C48FFF760FF316B1B48FFF75CFF16
:10068000F16B1A48FFF758FF2A060ED42B0403D546
:1006900041461748FFF750FF1648FFF74DFF394610
:1006A0001548BDE8F843FFF747BF49461348FFF731
:1006B00043FFEBE7D8CE020000ED00E0E8CE0200F9
:1006C000F8CE020008CF020018CF020028CF0200A7
:1006D00038CF020048CF020058CF020068CF020096
:1006E00074CF020084CF020094CF0200A4CF020096
:1006F000C4CF0200D4CF0200DCCF0200B4CF02008E
:1007000070B585692B888B4201D0002070BD90E8C0
:100710004800013B0446042BF7D801A252F823F00D
:10072000350700000B0700004F0700004F070000CF
:10073000570700000F49306825F0CAFE98B9736862
:100740002BB1042B13D0082B0DD103232360AB1C3A
:10075000A361012070BD3368023B012B94BF0023CD
:10076000B3680360F3E74FF0FF332360EFE7022342
:100770002360ECE7D4CE02000D4B0E481A6800212E
:1007800042F0010210B41A6099601A680A4C22F013
:10079000847222F480321A605C601A684FF0006440
:1007A00022F480221A60D960846010BC704700BFB8
:1007B0000038024000ED00E0103000241848836843
:1007C00003F00C03042B29D0082B0AD0154B144A34
:1007D000154892681549C2F30312825CD3400B603E
:1007E00070474368416813F4800F436818BF10488E
:1007F00001F03F020CBF0B49B0FBF2F1C3F38813C9
:1008000008BFB1FBF2F101FB03F2054B5B68C3F3D8
:10081000014301335B00B2FBF3F3D8E7044BD6E7A7
:10082000003802400024F40020D002001000002014
:1008300040787D0108B5431E012B05D80846BDE868
:1008400008401146FFF7A0BE23F0F2FF58230360D3
:100850004FF0FF3008BD00BF704700BF704700BFBA
:1008600000207047704700BF10B50421044609F00E
:100870000DFC204610BD00BF10B5034B03600446BD
:1008800002F026F8204610BDACD0020010B5054B92
:100890000360044602F01CF82046082109F0F6FB2C
:1008A000204610BDACD0020010B5082009F0F0FBC6
:1008B000044601F071FF024B2360204610BD00BFCB
:1008C000ACD0020070B5054682B009B3541A0F2CA3
:1008D0000E4601940AD82B68012C184613D064B92F
:1008E000019A6A600021995402B070BD002201A9EA
:1008F0001BF0D8FE019B2860AB602246314624F0F5
:100900009EFF2B68ECE796F900201A702B68E7E74A
:1009100012B103480EF03CFB01920368E0E700BF10
:1009200044D0020010B586B004A801F00BFA9DF87F
:100930001030FBB9059B002B31D01B68194A00937E
:100940000121042302A801F03DF803A801F0D0F929
:1009500003A902A805F0E8F9039B43B1012003F0C5
:10096000C7FA20B1039810B103685B68984702A8E2
:1009700001F03EF8059B83B1012003F0B9FA60B1A4
:10098000059C54B1234653F8080B984201D009F056
:100990007BFB2046182109F079FB06B010BD024B05
:1009A000CCE700BF70D00200C4E502002DE9F041A1
:1009B0001E4894B00AF0B8F91D4A07A8A2F1140124
:1009C00009AC0794FFF77EFF0799089A0DAF0A4418
:1009D00038460FAD0D95FFF775FF0323139301F014
:1009E00011F98046042009F053FB00230646114903
:1009F000114A0097049003910292CDF804801A46A0
:100A00000E4F0F490F48376008F048FB0D9B0E4A08
:100A1000AB42106002D0184609F036FB0798A0429E
:100A200001D009F031FB14B0BDE8F0814002002094
:100A300084D002005D0800005908000038D0020090
:100A400088D0020098D002004402002001480AF039
:100A5000F7B900BF40020020704700BF704700BFD9
:100A600010B50421044609F011FB204610BD00BF5B
:100A700010B50421044609F009FB204610BD00BF53
:100A800010B5034B0360044601F022FF204610BD61
:100A900014D1020010B5054B0360044601F018FFA5
:100AA0002046082109F0F2FA204610BD14D10200B8
:100AB00010B5034B0360044601F00AFF204610BD49
:100AC000F4D0020010B5054B0360044601F000FFAE
:100AD0002046082109F0DAFA204610BDF4D00200C1
:100AE00010B5082009F0D4FA044601F055FE024B77
:100AF0002360204610BD00BFF4D0020010B50820CE
:100B000009F0C6FA044601F047FE024B2360204676
:100B100010BD00BF14D1020070B5054682B009B304
:100B2000541A0F2C0E4601940AD82B68012C184633
:100B300013D064B9019A6A600021995402B070BD63
:100B4000002201A91BF0AEFD019B2860AB6022468C
:100B5000314624F074FE2B68ECE796F900201A70F9
:100B60002B68E7E712B103480EF012FA019203680E
:100B7000E0E700BF44D002002DE9F04FDFF8948297
:100B80009C4FC5B0044622A800268A460AF0FAFD0A
:100B9000D8F808508DF8FC6055F80C3CD8F80C20BB
:100BA000109544A90B44944922913E968DF8FD601E
:100BB000409641964296439643F8D02C119655F8AC
:100BC0000C0C009210AB184431461CF0F7F90DF5EF
:100BD0008879D8F8103049F8C83D53F80C0C0193C7
:100BE000D8F8143049F800303146484402931CF0DC
:100BF000E5F9D8F81830D8F804B003931A465BF832
:100C00000C3C44A90B441AA843F8D02C07F1280344
:100C1000229307F114031293784B139314961596AD
:100C2000169617961896199610970AF041F81823F9
:100C3000734A1B9322A81EAB13A913921C931D96F3
:100C40008DF878601CF0BAF99AF800206D4B6E4967
:100C5000B24216BF19460522042248461EF024F867
:100C6000189B666004F1080226722260002B00F0D7
:100C7000B380169DAB4259D9DDF85CB00DF1300A56
:100C8000CDF828A0BBF1000F00F09780CBEB030557
:100C90000DF110090F2DC9F800507BD8012D00F07F
:100CA00095805246002D40F0A38000230B952046EE
:100CB0000AA953551CF008F80A98504501D009F0CC
:100CC000E3F908F1100696E84006D8F804B0D8F821
:100CD0000850D8F80C804D4B2293143B1C9812936B
:100CE000474B13931EAB9842109701D009F0CCF9F3
:100CF000424B13931AA809F009FB5BF80C1C56F839
:100D00000C2C55F80C3C44A801440244034441F81F
:100D1000D0AC22A842F8C89C43F8D08C364B229322
:100D20000AF070FD204645B0BDE8F08F0DF11009C6
:100D3000DDF85CB00DF1180AC9F800A0BBF1000F96
:100D400039D0CBEB05050F2D0A9511D8012D37D0E1
:100D5000002D4BD152460023C9F80450204653556C
:100D600049461BF0B1FFD9F800005045A7D1A8E7CC
:100D700032460AA948461BF095FC0A9BC9F80000B8
:100D8000C9F808302A46594624F059FD0A9DD9F879
:100D90000020E0E7324649460AA81BF083FCD9F858
:100DA00000300A900C932A46594624F048FDD9F8A1
:100DB00000500A9A79E7002DCCD015480EF0E8F8DB
:100DC0009BF9003089F808305246C4E79BF900309F
:100DD0008DF83030524668E71CA9204601AE1BF062
:100DE000F3FCDDF8008096E8400674E75046C9E75A
:100DF0005046D8E74CF7020094100300CC1A0300C9
:100E000054F602002CD1020034D1020074F7020023
:100E100044D0020018F702007F4B70B580229A611F
:100E20001C69144092B0002C14BF012200224FF024
:100E300001038DF80E208DF80F3040F0E1800CA8F2
:100E40000DF10E0106AEFFF797FE04AD30460DF131
:100E50000F01FFF791FE0CAB2846009601946F4AF4
:100E60006F4908F0F5FE069808AB984201D009F0EA
:100E70000BF90C980EAB984201D009F005F99DF8DA
:100E800010300BBB059B002B00F0B8801B68654A37
:100E9000009306AC10230121204600F093FD0CA81E
:100EA00000F026FF0CA9204604F03EFF0C9B43B146
:100EB000012003F01DF820B10C9810B103685B68A5
:100EC0009847204600F094FD059B2BB1012003F0CC
:100ED0000FF8002840F0828053494F4B0A6B42F0D4
:100EE0001F020A631A6842F480421A609A6842F448
:100EF00040429A605A685A60DA6842F40042DA6006
:100F00001A69120654BF80224FF400029A61424BC4
:100F10005B6903F08003002B14BF012300234FF013
:100F200000048DF80E308DF80F406ED00CA80DF136
:100F30000E0106AEFFF720FE30460DF10F01FFF760
:100F40001BFE0CAB284600960194384A384908F03D
:100F50007FFE069808AB984201D009F095F80C98EE
:100F60000EAB984201D009F08FF89DF8103003BB0A
:100F7000059B002B4DD01B682A4A009306AC132317
:100F80000121204600F01EFD0CA800F0B1FE0CA9C6
:100F9000204604F0C9FE0C9B43B1012002F0A8FFDB
:100FA00020B10C9810B103685B689847204600F0A8
:100FB0001FFD059B83B1012002F09AFF60B1059CE3
:100FC00054B1234653F8080B984201D009F05CF85D
:100FD0002046182109F05AF812B070BD059C002C6B
:100FE0003FF47AAF234653F8080B984201D009F03A
:100FF0004BF82046182109F049F86DE70D4B46E7FC
:1010000004AD284600F09EFE39E7284600F09AFE1F
:10101000ABE7084BB0E700BF000002402CD1020054
:101020003CD102004CD102000038024034D1020011
:1010300060D10200C4E50200804B70B54FF400029D
:101040009A611B6903F0800392B0002B14BF012347
:1010500000234FF000048DF80E308DF80F4000F0A3
:10106000E1800CA80DF10E0106AEFFF785FD04AD81
:1010700030460DF10F01FFF77FFD0CAB28460096BF
:1010800001946F4A6F4908F0E3FD069808AB984257
:1010900001D008F0F9FF0C980EAB984201D008F08F
:1010A000F3FF9DF810300BBB059B002B00F0B880C0
:1010B0001B68654A009306AC07230121204600F017
:1010C00081FC0CA800F014FE0CA9204604F02CFEB4
:1010D0000C9B43B1012002F00BFF20B10C9810B122
:1010E00003685B689847204600F082FC059B2BB1A3
:1010F000012002F0FDFE002840F0828053494F4B52
:101100000A6B42F01F020A631A6842F480421A60B6
:101110009A6842F440429A605A685A60DA6842F427
:101120000042DA601A69120654BF80224FF40002AE
:101130009A61424B5C6904F08004002C14BF0122C8
:1011400000224FF001038DF80E208DF80F306ED184
:101150000CA80DF10E0106AEFFF70EFD30460DF1A5
:101160000F01FFF709FD0CAB284600960194384AA1
:10117000384908F06DFD069808AB984201D008F098
:1011800083FF0C980EAB984201D008F07DFF9DF8CC
:10119000103003BB059B002B4DD01B682A4A0093DF
:1011A00006AC0A230121204600F00CFC0CA800F03C
:1011B0009FFD0CA9204604F0B7FD0C9B43B1012014
:1011C00002F096FE20B10C9810B103685B68984756
:1011D000204600F00DFC059B83B1012002F088FE43
:1011E00060B1059C54B1234653F8080B984201D0D6
:1011F00008F04AFF2046182108F048FF12B070BDE1
:10120000059C002C3FF47AAF234653F8080B984214
:1012100001D008F039FF2046182108F037FF6DE7AC
:101220000D4B46E704AD284600F08CFD39E7284613
:1012300000F088FDABE7084BB0E700BF00000240BC
:1012400034D102003CD102004CD1020000380240EF
:101250002CD1020060D10200C4E502002DE9F04764
:101260003A48DFF80C813A4F94B009F05DFD394AF5
:1012700007A8A2F1130109AC0794FFF74DFC0799E9
:10128000089A0DAE0A4430460FAD4FF004090D9593
:10129000FFF742FCCDF84C9000F0B4FC8246484683
:1012A00008F0F6FE0023DFF8CCE004901A468DE843
:1012B0004004CDF80C8002972749C0F800E0274889
:1012C00007F0ECFE0D9B264AAB42106002D0184698
:1012D00008F0DAFE0798A04201D008F0D5FE1D4ABA
:1012E0000794A2F1130107A8FFF716FC0799089AC3
:1012F0000D950A443046FFF70FFC0D23139300F0C1
:1013000081FC8146042008F0C3FE024600230096BB
:10131000144E0490CDF80490CDF80C800297124939
:1013200016600E481A4607F0B9FE0D9B0F4AAB42F5
:10133000106002D0184608F0A7FE0798A04201D01E
:1013400008F0A2FE14B0BDE8F08700BF48020020FC
:10135000590800005FD10200C4D10200DCD10200B4
:1013600050020020E0D00200E4D102004C02002034
:101370005D080000CCD00200014809F061BD00BF4B
:101380004802002008467047704700BF704700BF02
:10139000704700BF704700BF704700BF704700BF75
:1013A000704700BF704700BF704700BF704700BF65
:1013B000704700BF704700BF704700BF704700BF55
:1013C000704700BF4368186B03689B68184700BFED
:1013D000704700BF704700BF704700BF704700BF35
:1013E000704700BF704700BF704700BF704700BF25
:1013F000704700BF10B50421044608F047FE2046A0
:1014000010BD00BF10B50821044608F03FFE20467D
:1014100010BD00BF10B50821044608F037FE204675
:1014200010BD00BF10B50421044608F02FFE204671
:1014300010BD00BF10B50421044608F027FE204669
:1014400010BD00BF10B50446054B4068236004F191
:101450000C03984201D008F017FE204610BD00BFD3
:1014600094DD020010B50446074B4068236004F188
:101470000C03984201D008F007FE20461C2108F01A
:1014800005FE204610BD00BF94DD020008B5034BE9
:101490001B68D86823F0F2FAFEF7D4FFF8000020AA
:1014A000074C084808B523682022DB68012123F097
:1014B00087FE2368D86823F0E1FA012023F0BEF903
:1014C000F8000020A8DE020070B5054682B009B31E
:1014D000541A0F2C0E46019408D8012C286813D0FA
:1014E0005CB900236C60035502B070BD002201A9F5
:1014F0001BF0D8F8019B2860AB602246314624F0EF
:101500009EF9019C2868ECE796F900300370019C75
:101510002868E6E712B103480DF03AFD144600686A
:10152000DFE700BF44D0020038B500F108030446ED
:1015300003600D4649B1084625F0EAFC29462A1801
:101540002046FFF7C1FF204638BD20464FF0FF324E
:101550002946FFF7B9FF204638BD00BF70B5846843
:10156000C5680B4B0360AC4206460ED054F8043BF2
:10157000184613B11B685B689847A542F6D1B0685E
:1015800008B108F081FD304670BD2046F8E700BF85
:1015900068D2020038B505686DB12B46044653F891
:1015A000080B984201D008F06FFD2846182108F07A
:1015B0006DFD0023236038BD90E80C009B1A9B1042
:1015C00005D05800834204D96FF040407047012095
:1015D00070476FF04043984228BF1846704700BFDD
:1015E000F8B50379A3B18368C468E41AA410013C78
:1015F0000ED417460E460546A40000E0AB68185905
:101600000368043C5B6B3A4631469847231DF5D18D
:10161000F8BD00BF0379D3B12DE9F041C3688568F7
:101620005B1B9B0811D090460F460646002455F8D8
:10163000240003684246DB6839469847B568F3687A
:1016400001345B1BB4EBA30FF1D3BDE8F08170470D
:101650000379A3B170B58368C468E41AA410013C8F
:101660000CD40E460546A40000E0AB681859036888
:10167000043C9B6B31469847231DF6D170BD7047E3
:101680000379A3B170B58368C468E41AA410013C5F
:101690000CD40E460546A40000E0AB681859036858
:1016A000043C9B6A31469847231DF6D170BD7047B4
:1016B0000379A3B170B58368C468E41AA410013C2F
:1016C0000CD40E460546A40000E0AB681859036828
:1016D000043C5B6A31469847231DF6D170BD7047C4
:1016E0000379A3B170B58368C468E41AA410013CFF
:1016F0000CD40E460546A40000E0AB6818590368F8
:10170000043C1B6B31469847231DF6D170BD7047D2
:101710000379A3B170B58368C468E41AA410013CCE
:101720000CD40E460546A40000E0AB6818590368C7
:10173000043C5B6931469847231DF6D170BD704764
:101740000379B3B18268C3689B1A9B0811D070B546
:101750000E460546002452F8240003683146DB6A31
:101760009847AA68EB6801349B1AB4EBA30FF2D335
:1017700070BD70470379B3B18268C3689B1A9B0838
:1017800011D070B50E460546002452F824000368B7
:101790003146DB699847AA68EB6801349B1AB4EBC1
:1017A000A30FF2D370BD70470379B3B18268C368E9
:1017B0009B1A9B0811D070B50E460546002452F8BE
:1017C0002400036831461B699847AA68EB68013416
:1017D0009B1AB4EBA30FF2D370BD70470379B3B17A
:1017E0008268C3689B1A9B0811D070B50E460546E7
:1017F000002452F82400036831461B6A9847AA68FF
:10180000EB6801349B1AB4EBA30FF2D370BD7047A1
:101810000379B3B18268C3689B1A9B0811D070B575
:101820000E460546002452F82400036831469B69A1
:101830009847AA68EB6801349B1AB4EBA30FF2D364
:1018400070BD70470379B3B18268C3689B1A9B0867
:1018500011D070B50E460546002452F824000368E6
:1018600031469B689847AA68EB6801349B1AB4EB31
:10187000A30FF2D370BD704770B58468C5680D4B77
:101880000360AC42064612D054F8043B184613B12C
:101890001B685B689847A542F6D1B06808B108F0AC
:1018A000F3FB3046142108F0F1FB304670BD2046B2
:1018B000F4E700BF68D202002DE9F04182B002AB2C
:1018C00003E9060090E80C00C2EB03085FEAA808F1
:1018D00032D00020A2F1040C86465CF8043F1D6A59
:1018E0005E6AB5424FF0000702D11DE0AE421BD048
:1018F00055F8043B93F85820002AF7D05A6E9C6E96
:101900000F4BA41A241103FB04F4002CEEDD137812
:1019100033B90133A342E9D012F8501F0029F8D09F
:10192000AE4207F10107E3D10EF1010EC64538447E
:10193000D3D102B0BDE8F081404602B0BDE8F081ED
:10194000CDCCCCCC00680249083006221DF0ACB9E1
:10195000CCDE020010B5054A00F10803044603601E
:101960001146FFF7B1FD204610BD00BFC4E50200DF
:1019700070B4056A466AB5424FF0000002D11DE01E
:10198000AE421BD055F8043B93F85820002AF7D0FC
:101990005A6E9C6E0A4BA41A241103FB04F4002C0B
:1019A000EEDD137833B90133A342E9D012F8501FAA
:1019B0000029F8D0AE4200F10100E3D170BC7047BD
:1019C000CDCCCCCC2DE9F0410546242088461746E5
:1019D0001E4608F05DFB0446069984F800806760A7
:1019E000A6600C30FFF7A0FD2C602846BDE8F08112
:1019F00010B50446006858B1C36800F11402934260
:101A000003D0184608F040FB2068242108F03EFB74
:101A1000204610BD38B50E4B1D680446A5B13A21CD
:101A2000284624F047FD48B104F108030246294640
:101A300023602046FFF748FD204638BD2946204652
:101A4000FFF772FD204638BD0249FFF76DFDF3E751
:101A5000E0020020C4E5020070B591F900500E4686
:101A60000446204614F9013B2A2B10D006DD3A2B00
:101A700009D03F2B03D195B9284670BD1BB1AB42AD
:101A80000DD0002070BDB5FA85F0400970BD002D65
:101A9000E7D0711CFFF7E0FF0028E2D070BD96F997
:101AA00001500136DDE700BF38B50A46056804E09D
:101AB000104624F0FFFC40B1421C29461046FFF7B7
:101AC000CBFF3A2104460028F2D0204638BD00BFA3
:101AD0002DE9F0410368426898B01A440D4612A8F7
:101AE000194614AC1294FFF7EFFC424912A81BF000
:101AF000B9F8296812A81BF0B5F8014668461AF033
:101B0000DEFE1298A04201D008F0BEFA3A4BD3F89C
:101B100000802D21404624F0CDFC08AE00230EAFFE
:101B20000546069607938DF820300D938DF83830D2
:101B30000C974146002854D0024612A81294FFF791
:101B4000C3FC06A812A91BF0BFF81298A04201D04E
:101B500008F09AFA691C12A8FFF7E6FC0CA812A973
:101B60001BF0B2F81298A04201D008F08DFA079B42
:101B700093B3DDF81880009D424604E0104624F03F
:101B800099FC20B3421C29461046FFF765FF3A2115
:101B900004460028F2D00C9D68462946FFF784FFD2
:101BA000BD4280F00100C4B214D0284608F06CFA9F
:101BB0000698B04201D008F067FA009802AB98424C
:101BC00001D008F061FA204618B0BDE8F0810C9D04
:101BD000BD42EAD14046ECE706A808491AF0F8FFF2
:101BE000C7E706A81AF0F4FF0CA805491AF0F0FFA1
:101BF000BFE700BF84E80200AC020020DCD2020094
:101C0000C4E502000048704754020020836CD0F8FD
:101C10004CC0634536D0F0B500209E4601E0F44547
:101C20002FD05EF8043B93F84020002AF7D01D6ABD
:101C30005E6AB542F3D0002701E0AE421BD055F8F2
:101C4000043B93F85820002AF7D05A6E9C6E0E4B36
:101C5000A41A241103FB04F4002CEEDD137833B92D
:101C60000133A342E9D012F8501F0029F8D0AE4248
:101C700007F10107E3D1002FD1D0F44500F10100B5
:101C8000CFD1F0BD00207047CDCCCCCC70B5044690
:101C9000D1F8B40082B0A0B10168114E8D68B54290
:101CA00006D110492046FFF73FFC204602B070BD28
:101CB0000D4E531C014632682046A847204602B00C
:101CC00070BD04208DE8060008F0E2F9044E00998A
:101CD000064BC1F8B40003603546019ADFE700BF48
:101CE00055190000C4E502008C020020ACDC0200A3
:101CF00038B50546D02008F0CBF90446182109F084
:101D00004DFBA3682C6053F80C3C23441122284659
:101D1000DA6038BD70B54C680B78037005466CB15D
:101D2000182008F0B5F900F1080303602368626821
:101D300019461A440646FFF7C7FB34466C6028462E
:101D400070BD00BF0121002201704260704700BFDA
:101D50002DE9F04F144697B04B6824681191129208
:101D6000096852680E935D1A131B9B10AD10013366
:101D70000B910D920C94149005F1010500F03B823B
:101D8000B3F1005F80F08182DC00204608F080F92A
:101D9000224600210746061923F077FD002D00F0AA
:101DA0004F82A74B9D4200F2708205EB45084FEA37
:101DB0008808404608F06CF9F61BF3100F9040F0CD
:101DC000EE8103460C330C2B06D0002243F8046C42
:101DD00043F8086C43F80C2C013D03F10C03F2D1DD
:101DE0000F9B4344139317B1384608F04DF9119AED
:101DF00053680E931368129A0B9353680D931368EC
:101E00000C930D9B0C9A9D1A0E9B0B9AAD109C1A6D
:101E1000A410013504F1010440F0B0812F46002CDC
:101E200000F01182864B9C4200F22F8204EB4408A2
:101E30004FEA8808404608F02BF9ED1B1090034646
:101E400040F0DE810C330C2B06D0002243F80C2C22
:101E500043F8042C43F8082C013C03F10C03F2D1A5
:101E6000109B4344159317B1384608F00DF9119AA9
:101E700053680E9313680B93139B0F9A714D9B1A23
:101E80009B1005FB03F5ADB10024DDF8408017463B
:101E90002646304621F018FF3A5958F804300136EA
:101EA000C2E90001AE424FF0020204F10C041A70C4
:101EB000EFD10F9A166853689B1BDD10012D0DD9C9
:101EC000109B1F680124204621F0FEFE01340123EF
:101ED000AC42E6E9020107F8013FF4D10E9B0B9AF0
:101EE0009A1A930800F0C68012994B680D930B68FC
:101EF0000C930F9B03F10C08109B06930B9B09930B
:101F000001230A930D980C99431A9B1000F0A180AD
:101F10000793099B1F68089708264FF001094FF0A7
:101F2000000A8B463A4622E022462B46DDE9004570
:101F30002046294622F0B0F900283CD00022424B2E
:101F40002046294621F084FD069BDB6837440122A8
:101F5000C7E9000103F80920079A4A450AF1040A73
:101F600006F1080609F1010370D9089A99465BF851
:101F70000A3093424ED058F80C2CD8F800704FEA33
:101F80004A03F8189119D0E90045D1E90001CDE9DB
:101F9000004502EB030E04460D46CDE904452246FA
:101FA0002B46DEE90045DDE90001CDE9024522F0DE
:101FB00073F90028B8D1DDE90445DDE900012246C6
:101FC0002B4622F087F9A8B1DDE9022320462946F5
:101FD00022F062F970B100221B4B2046294621F005
:101FE00037FD069BDB6837440222C7E9000103F88E
:101FF0000920B1E7DDE902010FA3D3E9002321F0B5
:1020000027FD069BDB6837440322C7E9000103F87C
:102010000920A1E758F80C2C0699D8F80030CC68B4
:1020200002EB4A02D2E900013344C3E90001002374
:1020300004F8093090E700BF72C45A7C0A00F03FF0
:1020400055555515ABAAAAAA0000F03F0E9B0B9A56
:102050009A1A069B0A990C330693099B0433099339
:10206000B1EBA20F0B4608F10C0803F1010301D2FA
:102070000A9347E7149D1199DDF8408000242C60F5
:102080006C60AC604A680E6812994B680F68961BCA
:10209000DF1BA146B610BF1006B9B7B106EB460369
:1020A000AA6858F82330A24213F807A03FD00CB119
:1020B00084F800A001346C60BAF1010F18BF013E32
:1020C000BAF1020F18BF013FE6E74C450BD0013CC7
:1020D0004C4508D999F80030227809F8012B04F80A
:1020E0000139A145F6D3109C159DAC4206D020685D
:1020F00008B107F0C9FF0C34AC42F8D1109B13B102
:10210000184607F0C1FF0F9B139A934208D01C4654
:102110001546206808B107F0B7FF0C34AC42F8D17F
:102120000F9807F0B1FF149817B0BDE8F08FC9EB16
:102130000404631C00F0A2807CB34FEA440B5C45AE
:1021400094BF5C464FF0FF34204607F0A1FF2B6898
:102150006A68D21A00EB040B8418814618BF00F895
:1021600002A0002A40D1013413B1184607F08CFFB9
:10217000C5F800906C60C5F808B09DE7284607F0E8
:1021800087FF2A4600210746451923F07EFB002CD5
:102190007FF448AE1594109466E60124D4E7B3F1B9
:1021A000005F6ED2002B51D000F10C04B9460C2C0C
:1021B00014D0002344F80C3C44F8083C44F8043C98
:1021C000304607F065FF871944F80C0C44F8047C8E
:1021D0003246494623F033FB44F8087C013D04F1C4
:1021E0000C04E4D14F46FBE519460093013423F07B
:1021F00031FB009BB9E7002D3CD01E461F46D0E5C1
:1022000000F10C06B9460C2E14D0002346F80C3C05
:1022100046F8083C46F8043C284607F039FF4719C1
:1022200046F80C0C46F8047C2A46494623F007FB86
:1022300046F8087C013C06F10C06E4D14F460FE657
:1022400013950F95D0E51594109415E600F10C0444
:102250000C2C0AD0002044F8046C44F80C0C3246D4
:10226000394623F0ECFA44F8086C013D04F10C0403
:10227000EED1B5E513950F951346C3E504480CF070
:102280008AFE00230360436083600CF07BFE00BF86
:10229000D4DE02002DE9F041B4B034AF05460E465D
:1022A0006846182109F07AF857F8C83D53F80C4CE5
:1022B0003C4494F87520C2B1302284F8742053F85D
:1022C0000C3C34AA1344022243F8C02C3146384651
:1022D0001CF08FFD03A9284608F04CFE684609F063
:1022E000BBF8284634B0BDE8F081D4F87C80B8F162
:1022F000000F15D098F91C201AB1012284F875201E
:10230000DAE740461DF06FFCD8F80030054A9B69BB
:10231000934201D1029BF0E7404620219847F9E71C
:102320000CF033FE851300002DE9F041B4B034AC5D
:1023300006460F466846182109F030F854F8C83DA3
:1023400053F80C5C254495F875201AB3302285F8B3
:10235000742053F80C2C34A90A44022142F8C01C02
:1023600053F80C2C22443946D36823F04A0343F433
:10237000804343F00803D36020461CF03EFD03A9D0
:10238000304608F0F7FD684609F066F8304634B08C
:10239000BDE8F081D5F87C80B8F1000F15D098F930
:1023A0001C201AB1012285F87520CFE740461DF0A8
:1023B0001AFCD8F80030064A9B69934201D1029B6F
:1023C000F0E7404620219847F9E70CF0DEFD00BF1A
:1023D000851300002DE9F04788B004460C3102A8AF
:1023E00008F0C8FD029D0399002304F1080A05EBDB
:1023F0000109C4F800A063602372204649001AF066
:1024000078FA4D450DD12CE062686FF000439B1ABD
:10241000012B30D90222194920461AF0E8FBA945C0
:102420001FD015F9016B002EEED094E808019A45F3
:1024300018BFA26808F1010708BF0F22974208D908
:1024400000230122009241461A4620461AF0E3F981
:10245000236803F80860236867600022A945DA55FD
:10246000DFD1029804AB984201D007F00DFE204660
:1024700008B0BDE8F08702480CF08DFD04DF0200D3
:1024800040DF02002DE9F041446886B00E4684B179
:1024900031686846FFF79EFF204600991AF0E2FB7C
:1024A000009802AB984201D007F0EEFD06B0BDE8FF
:1024B000F0810546182007F0EBFDD5F80480446054
:1024C00000F10803404507460472036010D0B8F1DC
:1024D000000F0AD0434653F8080B984201D007F08A
:1024E000D3FD4046182107F0D1FD6F603C46CFE791
:1024F0000446CDE770B5044686B0D0200E4607F0FE
:10250000C7FD1821054608F049FF25603168684677
:10251000FFF760FF05F108009DE806001CF0C4FB12
:10252000009802AB984201D007F0AEFD204606B0FD
:1025300070BD00BF30B589B0054601A80C46FFF755
:10254000D7FB0198214908301CF0F6FB0198002CBC
:1025500036D0214608301CF0EFFB02A80199FFF7A6
:1025600039FF019810B103685B68984701A8FFF72D
:10257000BFFB039B00248BB1029B185D25F09EFCE2
:10258000019B8DF80300012203F108000DF1030106
:102590001CF08AFB039B01349C42EDD12846019933
:1025A000FFF718FF019810B103685B68984702981D
:1025B00004AB984201D007F067FD284609B030BD52
:1025C000034908301CF0B8FBC7E700BF7CDF0200FE
:1025D000CCDE0200F0B50D4689B0074601A8FFF732
:1025E00087FB69680024F9B12B681A57A2F122030E
:1025F0001C2B41D8DFE803F0394040402B324040EB
:1026000040404040404040404040404040404040CA
:10261000404024400F0001982F4908301CF08CFBEB
:10262000696801348C42DFD338460199FFF7D2FE46
:10263000019810B103685B689847384609B0F0BD4F
:102640000198264908301CF077FB6968E9E7019892
:10265000234908301CF070FB6968E2E701982149C2
:1026600008301CF069FB6968DBE701981E490830F7
:102670001CF062FB6968D4E7D6B2A6F10903012B0E
:102680000ED90D2A0CD01F2ACBDD0D2A08D008A99F
:10269000019801F81D2D083001221CF005FB18E0FF
:1026A0000198124908301CF047FB314602A8FFF799
:1026B0003BFE01A807C808301CF0F6FA01980C4947
:1026C00008301CF039FB029804AB984201D007F0A7
:1026D000DBFC6968A5E700BF8CDF020084DF020035
:1026E00094DF02009CDF0200A4DF0200ACDF0200E6
:1026F00098DF020030B58DB004460D46684611687B
:10270000FFF768FE019B93B904F1080323602B686F
:102710006A6819461A442046FEF7D6FE009802ABB6
:10272000984201D007F0B0FC20460DB030BD95E8CE
:10273000060006A80A4408AD0695FEF7C5FE09493D
:1027400006A81AF08FFA9DE8060006A81AF04FFABC
:10275000014620461AF0B3F80698A842DED007F0EA
:1027600093FCDBE778F1020042688068094B801A2D
:10277000001103FB00F0002808DD13781BB107E00F
:1027800012F8501F21B901338342F9D1002070475C
:1027900001207047CDCCCCCCF8B53B4B036005464F
:1027A000B42007F075FC394B39491B780370044697
:1027B00004F12403374AE36104F1400604F1740391
:1027C0000C3012780F786060A66304F1580004F1B1
:1027D000A006E3660023A270A3602373236284F83B
:1027E0002430E36384F84030636584F8583023670D
:1027F00084F87430C4F89C3084F8A0302065C4F8A4
:102800009860201D04F11C066770234919F0DCFF55
:102810003046224919F0D8FF214B22491B7884F811
:10282000343004F1380004F1500619F0CDFF304681
:102830001D491E4E19F0C8FF1D4B1E491B7884F818
:10284000683004F16C0019F0BFFF1B491B481C4A9B
:102850001C4B376800780E6812781B6884F8840077
:10286000C4F8943004F198001749C4F88870C4F88B
:102870008C6084F8902019F0A7FF144B6C601B78D3
:1028800084F8B0302846F8BD58DE0200C5020020AA
:102890006002002048030020F802002068020020A7
:1028A00056020020AC020020300300205C02002011
:1028B000DC020020E0020020D8020020DD0200201F
:1028C000D40200208C0200209402002090020020FC
:1028D000F8B544683D4B03600546002C74D03C4974
:1028E00020783C4B3C4EA27867780870211D3B480D
:1028F0001A70377019F068FF04F11C013848394E1E
:1029000019F062FF384B94F8342038481A7004F1FB
:10291000380119F059FF04F15001354819F054FFFE
:10292000344B94F8682034481A7004F16C0119F0A3
:102930004BFF324894F88470314A3249324B077069
:10294000D4F88870D4F88C0017600860D4F894200C
:1029500094F890702D481A6004F19801377019F0BE
:1029600033FF2B4BD4F8980094F8B0201A7004F180
:10297000A003984201D007F087FBE06E04F17403D6
:10298000984201D007F080FB206D04F15803984273
:1029900001D007F079FBA06B04F14003984201D00D
:1029A00007F072FBE06904F12403984201D007F0BC
:1029B0006BFB606804F10C03984201D007F064FBE4
:1029C0002046B42107F062FB2846F8BD58DE02001D
:1029D000C50200204803002060020020F802002009
:1029E00068020020D402002056020020AC02002021
:1029F00030030020DC020020E0020020DD02002085
:102A00005C020020D80200208C02002094020020EA
:102A1000900200202DE9F845804600F1080548F8AD
:102A2000185B42C9044692468A19089D099F1E46B2
:102A3000FEF74AFD04F12003A3619AE80600404630
:102A40000A44FEF741FD002E39D0182007F020FB84
:102A500031468046FEF768FD43462363002D32D0A1
:102A6000182007F015FB29468046FEF75DFD40461D
:102A700004F140036063A3633B687A6819461A4413
:102A800004F13800FEF720FDBB690A9A2365002097
:102A90000023002162650B9AE265C4E9200184F8F5
:102AA000583084F8593084F85A306366A366E36678
:102AB00023676367A367E3672046BDE8F88533466D
:102AC0002363002DCCD12846D2E700BFF8B50646D7
:102AD000C06D10B103685B689847346F776FBC4274
:102AE00015D004F12005A069A84201D007F0CCFA66
:102AF00055F8200C04F10803984204F1300405F164
:102B0000300501D007F0C0FAA742ECD1376F17B1FA
:102B1000384607F0B9FA746EB56EAC4219D0A06BA6
:102B200004F14003984201D007F0AEFA206A04F1A4
:102B30002803984201D007F0A7FA606804F10C035B
:102B4000984204F1500401D007F09EFAA542E6D164
:102B5000756E15B1284607F097FAB06B06F1400381
:102B6000984201D007F090FA746B3CB3234653F8B7
:102B7000080B984201D007F087FA2046182107F089
:102B800085FA346B54B1234653F8080B984201D0B0
:102B900007F07AFA2046182107F078FAB06906F1B2
:102BA0002003984201D007F06FFA334653F8080B20
:102BB000984201D007F068FA3046F8BD346B002C1B
:102BC000E1D1EBE7F8B5056A476A384B0360BD42CF
:102BD00006460BD055F8044B20462CB1FFF776FF84
:102BE0002046882107F052FAAF42F3D1346E776E57
:102BF000BC4218BF04F1200513D0A069A84201D03F
:102C000007F042FA55F8200C04F10803984204F149
:102C1000300405F1300501D007F036FAA742ECD1B7
:102C2000376E17B1384607F02FFA746DB56DAC42A8
:102C300019D0A06B04F14003984201D007F024FAA8
:102C4000206A04F12803984201D007F01DFA606859
:102C500004F10C03984204F1500401D007F014FA77
:102C6000A542E6D1756D15B1284607F00DFAF06A58
:102C700008B107F009FA306A08B107F005FAF469FB
:102C800054B1234653F8080B984201D007F0FCF9E1
:102C90002046182107F0FAF9706806F10C039842F3
:102CA00001D007F0F1F93046F8BD00BF74D302003F
:102CB00010B50446FFF786FF2046782107F0E6F9B5
:102CC000204610BDF8B5856CC76C734B0360BD42E0
:102CD000064608D115E0FFF775FF2046782107F07A
:102CE000D5F9AF420DD055F8044B6C4B2046002C63
:102CF000F7D0226852689A42EDD020469047AF4202
:102D0000F1D1F46B376CBC4204D112E007F0BEF98C
:102D1000A7420ED054F8043B614A04211846002B08
:102D2000F6D01D686D689542F0D01846A847A742B6
:102D3000F0D1D6F8B40010B103685B689847D6F8B4
:102D4000D840D6F8DC50AC420CD0A06804F1100397
:102D5000984204F1200401D007F096F9A542F4D17D
:102D6000D6F8D85015B1284607F08EF9D6F8A850F5
:102D7000EDB12B684B4A5B68934240F08680AC68AB
:102D8000EF68494B2B60BC4200F0828054F8043B52
:102D9000184613B11B685B689847A742F6D1A8682C
:102DA00008B107F071F92846142107F06FF9D6F839
:102DB0009040D6F89470BC4216D004F12005A0696A
:102DC000A84201D007F060F955F8200C04F108037F
:102DD000984204F1300405F1300501D007F054F9B0
:102DE000A742ECD1D6F8907017B1384607F04CF9ED
:102DF000D6F88440D6F88850AC421AD0A06B04F1C3
:102E00004003984201D007F03FF9206A04F12803FB
:102E1000984201D007F038F9606804F10C03984239
:102E200004F1500401D007F02FF9A542E6D1D6F8FD
:102E3000845015B1284607F027F9346E706EA04211
:102E40000AD0034654F8040B18B103685B6898472E
:102E5000736EA342F6D1306E08B107F015F9706DAC
:102E600008B107F011F9B06C08B107F00DF9F06B7B
:102E700008B107F009F9334653F8080F08339842B0
:102E800001D007F001F93046F8BD284698478EE793
:102E90002046002885D186E7CCD20200B12C000064
:102EA000F51300007918000068D2020010B504463E
:102EB000FFF708FF2046E82107F0E8F8204610BD9C
:102EC00038B584680A4B036005465CB12368094A3B
:102ED0005B689342204607D1FFF7F4FE2046E821C5
:102EE00007F0D4F8284638BD9847284638BD00BFBB
:102EF00084DD0200AD2E00000B4B0C4A10B59C681F
:102F00001A606CB123680A4A5B689342204608D174
:102F1000FFF7D8FE2046E821BDE8104007F0B6B81C
:102F200010BDBDE8104018478002002084DD02007B
:102F3000AD2E000038B585680E4B036004465DB1C8
:102F40002B680D4A5B68934228460BD1FFF7BAFE07
:102F50002846E82107F09AF820460C2107F096F859
:102F6000204638BD984720460C2107F08FF82046B0
:102F700038BD00BF84DD0200AD2E0000F8B5174D4E
:102F80000446174640F8045B1D46FEF7CDFA1FB312
:102F9000182007F07DF839460646FEF7C5FA304698
:102FA000002300260027069AE061A563E2632362FE
:102FB0006362A362E3622363636384F84030636502
:102FC000A365E36523666366A366E366C4E91267E7
:102FD000C4E91C672046F8BD3846E1E774D3020017
:102FE0002DE9F843456A836A9D420446894612D01A
:102FF0000DB12960456A04356562236BE66A626B30
:103000009D1B93424FEAA5072BD003B11F600433E9
:103010002363BDE8F88332492030FEF7CDFA00285B
:1030200058D0B0F1804F58D28600304607F030F8C3
:10303000656A0746D4F82080C8EB0505EF4218BF43
:1030400047F80590AB0832D104353D44B8F1000F84
:1030500002D0404607F018F83E44A6622762656237
:10306000CBE71F4904F12C00FEF7A6FA70B3B0F1CC
:10307000804F32D24FEA8009484607F009F8E66AE5
:10308000256BAD1B8046AA1018EB050318BF48F846
:103090000570A2B91D1D16B1304606F0F5FF08EB0C
:1030A00009006063C4F82C802563BDE8F8832A46D4
:1030B00041463846043522F0CDFB3D44C9E72A4657
:1030C000314640461D1D22F0C5FBE5E7814680469E
:1030D0003A46D9E706460746ACE70BF053FF00BF78
:1030E000D4DE020038B5354B1C68002C64D0054690
:1030F0003349204623F0C0F9B0B13249204623F0CD
:10310000BBF938B33049204623F0B6F910B32F4944
:10311000204623F0B1F9E8B120462D4923F0D8F933
:10312000B0FA80F0400938BD2A4822F087F80446FA
:10313000002841D0284923F0CBF948B1274920463F
:1031400023F0C6F920B12649204623F0C1F918B969
:10315000002D31D0012038BD2249204623F0B8F996
:103160000028F5D02049204623F0B2F90028EFD0FE
:103170001E49204623F0ACF90028E9D01C4920461E
:1031800023F0A6F90028E3D01A49204623F0A0F93D
:103190000028DDD01849204623F09AF90028D7D01E
:1031A0001649204623F094F90028D1D0204614492E
:1031B00023F08EF90028CBD0002038BDF802002083
:1031C000FCDF020098E002002CD10200A0D0020037
:1031D0009CE0020004E002000CE0020014E00200A7
:1031E00020E0020030E0020038E0020048E0020087
:1031F00050E0020060E0020070E0020088E002009F
:1032000090E002000EB430B51A4D82B005AB2A68CA
:1032100053F8044B0193D3071BD5174B187840B9CB
:103220002046019925F0B6F902B0BDE8304003B060
:1032300070471249124822F0CFFE0199204625F02E
:10324000A9F9104822F0C8FE02B0BDE8304003B032
:1032500070470D4B1B68986821F022FC24F014FE87
:10326000003018BF0120FFF73DFF034A0123107013
:103270002B60D4E764020020C4020020A0E002001A
:10328000A4E00200B0E00200F800002008B5074901
:103290000220FFF7B7FF064822F062FF054B1B68CC
:1032A0009868BDE8084021F0E9BB00BFB4E0020027
:1032B000C4E00200F800002010B50C4602200949C5
:1032C000FFF7A0FFA2692168074822F085FE0A20C7
:1032D00022F0D8FE054B1B68BDE81040986821F02D
:1032E000CDBB00BFE4E00200F4E00200F8000020E3
:1032F00008B507490220FFF785FF064822F030FF96
:10330000054B1B689868BDE8084021F0B7BB00BFBB
:10331000B4E00200FCE00200F80000200EB430B57A
:103320001A4D82B005AB2A6853F8044B0193D307BA
:103330001BD5174B187840B92046019925F02AF97A
:1033400002B0BDE8304003B070471249124822F085
:1033500043FE0199204625F01DF9104822F03CFE5D
:1033600002B0BDE8304003B070470D4B1B68986851
:1033700021F096FB24F088FD003018BF0120FFF7F4
:10338000B1FE034A012310702B60D4E764020020D1
:10339000C402002020E10200A4E00200B0E002002C
:1033A000F80000200EB430B51A4D82B005AB2A6883
:1033B00053F8044B0193D3071BD5174B187840B92A
:1033C0002046019925F0E6F802B0BDE8304003B090
:1033D00070471249124822F0FFFD0199204625F05E
:1033E000D9F8104822F0F8FD02B0BDE8304003B033
:1033F00070470D4B1B68986821F052FB24F044FD88
:10340000003018BF0120FFF76DFE034A0123107042
:103410002B60D4E764020020C40200209CE002007C
:10342000A4E00200B0E00200F80000200EB470B585
:103430001F4E83B007AB326853F8045B0193D30788
:10344000044624D51B4B187800B144B9284601998D
:1034500025F0A0F803B0BDE8704003B07047013C10
:10346000E4B2022C0FD90021134822F0B5FD0199D6
:10347000284625F08FF8114822F0AEFD03B0BDE8D4
:10348000704003B070470E4B53F82410ECE70D4B1F
:103490001B68986821F004FB24F0F6FC003018BF8C
:1034A0000120FFF71FFE034A012310703360CBE7B2
:1034B00064020020C4020020A4E00200B0E0020088
:1034C00070DE0200F800002070B5224D86B00026A4
:1034D0004021284622F0EEFF044630B3294602463A
:1034E00002AD68460095FDF7EFFF3046009A1A4995
:1034F000FFF79CFF0098A84201D006F0C5FD94F9A3
:103500000130402B04F102051AD0442B14D0522B69
:1035100014D0472B19D0592B19D0651C40212846AF
:1035200022F0C8FF04460028D8D12A4630460A496E
:10353000FFF77CFF06B070BD0026C9E70126C7E78C
:1035400006493046FFF772FFC2E70226C0E70326AE
:10355000BEE700BF94D3020004E5020024E10200AC
:1035600038B5036BBBB1416B1D68E9B10C68ADB1F7
:10357000144822F031FD2A461349144822F02CFD4C
:103580008CB1134822F028FD224612490F48BDE8AD
:10359000384022F021BD436B8BB11C688CB10948C7
:1035A00022F01AFDF0E738BD55B1064822F014FDAF
:1035B0002A4605490548BDE8384022F00DBD38BD12
:1035C00038BD38BD38E1020024DE020030E10200DF
:1035D00028E1020060DD02002DE9F04F83B0734B5B
:1035E000876800930024019402AB834613E9060028
:1035F00007F14800FEF760F9002800F0BD80D7F819
:1036000048A0FB6CCAEB0309B9F1030F0EDCB3E071
:1036100052F82430002B0FDB5AF8246096F8403023
:1036200073B90134B4EBA90F80F2A6807A6DBB6D3B
:103630009B1AB4EBA30FEBDB002393F84030FFDEC3
:10364000D6F820E0706A8645EBD0F4464FF00008CB
:1036500001E060451BD05CF8043B93F85820002A39
:10366000F7D05A6E9B6E52499B1A1B1101FB03F156
:103670000029EEDD137833B901339942E9D012F80D
:10368000505F002DF8D0604508F10108E3D1B8F192
:10369000000FC6D0CEEB0003032BC2DD00270EE0E7
:1036A00052F82730002B10DB5EF8235095F8583085
:1036B0007BB90137CEEB0003B7EBA30F50DAF26A08
:1036C000336B9B1AB7EBA30FEADB002393F8583058
:1036D000FFDE6A6EAB6E3649C2EB030C4FEA2C1C60
:1036E00001FB0CFCBCF1000FE3DD137833B90133AF
:1036F0009C45DED012F8501F0029F8D02D4901203A
:10370000FFF750FEAA6971682B4822F065FC2B6B0D
:10371000002B34D0696BD3F80090002939D00D68A4
:10372000B9F1000F2FD0254822F056FC4A46244913
:10373000244822F051FC3DB1234822F04DFC2A469A
:103740002249204822F048FC0A2022F09BFCD6F8AF
:1037500020E0706A0137CEEB0003B7EBA30FAEDBBE
:10376000DBF80870D7F848A0FB6C0134CAEB0309FA
:10377000B4EBA90FFFF65AAF03B0BDE8F08F6B6B47
:10378000002BE1D01D68002DDED00C4822F024FC77
:10379000D5E7B9F1000FD7D0084822F01DFC4A4602
:1037A0000749084822F018FCCEE700BF7119000055
:1037B000CDCCCCCC44E10200F4E0020038E10200C0
:1037C00024DE020030E1020028E1020060DD020098
:1037D000F8B58368C768FE1AB61025D01A689142FA
:1037E0000DD00433002202E025688D4208D001325A
:1037F000B2421C4603F10403F6D10020F8BD1C467A
:103800000D46211D8F42064602D07A1A930803D135
:10381000043FF7602846F8BD204622F01BF8F76801
:10382000043FF7602846F8BD3046F8BD00000000B0
:10383000D0B5B4B016461F4604461821684607F0B6
:10384000ADFD3046394620F087FA0BA3D3E90023BB
:1038500020F0B0FA02460B4602A81BF04AFB2046B5
:1038600003A907F087FB684607F0F6FD204634B051
:10387000D0BD00BFAFF30080FCA9F1D24D62503F34
:1038800070B509220C46114906461BF00DFA08E0F6
:1038900030461BF027F912220D493046EC1C1BF074
:1038A00003FA0C49204623F063FB21460546021B20
:1038B0000028EDD1214630461BF03EFA3046032267
:1038C0000449BDE870401BF0EFB900BF54E10200AD
:1038D00064E1020060E102002DE9F04F0E468FB076
:1038E000814601A8FEF704FAD6F810A07369CAEB66
:1038F00003032F2B6ADD0125002404AF0DF12808F6
:1039000032E0204623F004FB2218214602A8FDF7EE
:10391000DBFD02A908A8FEF75DFE0198099A089947
:1039200008301BF0C1F901983149083001221BF021
:10393000BBF90898404501D006F0A6FB0298B842B2
:1039400001D006F0A1FBD6F810A07269294BCAEB92
:103950000202121103FB02F2AA4237DD954205F181
:1039600001032C463FD21D460198234904EB440431
:103970002401083001221BF097F95AF804B054448E
:10398000BBF1000F1CD0584623F0C2FA019B02463F
:10399000594603F108001BF087F9019817490122E5
:1039A00008301BF081F901981149083001221BF001
:1039B0007BF9A4690297002CA3D14FF0FF32A4E752
:1039C00001980F4908301BF0B7F9E6E7484601991E
:1039D000FEF700FD019810B103685B689847484600
:1039E0000FB0BDE8F08F294606480BF0D7FA00BFAC
:1039F00064F00200ABAAAAAAE0E8020078E10200A3
:103A0000CCDE0200B0DF020043688B4242D00022CD
:103A10002DE9F0410D460446426019460068FFF763
:103A2000D7FE10B103685B689847656085B324686A
:103A3000E3682269934206D00BB11D60E36804334A
:103A4000E360BDE8F0811A4904F10800FDF7B4FD18
:103A500040B3B0F1804F28D28700384606F018FBFB
:103A60008046A068E668361A18EB060F04D048F8BE
:103A70000650A068E668361AB3080CD104364644EE
:103A800008B106F001FB47442761C4F80880E660EE
:103A9000BDE8F081704701463246404621F0DAFE2B
:103AA000A068EBE707468046DBE70BF06BFA00BF48
:103AB000D4DE02002DE9F04185688D4255D043687F
:103AC000D0F800809D424FF000030CBF436083603C
:103AD000D8F80830D8F80CE00F46C3EB0E01891077
:103AE00006460DD01A68954241D00433002204E006
:103AF000184604330468A5423AD001329142F7D106
:103B0000B760002F31D03468E3682269934206D051
:103B10000BB11F60E3680433E360BDE8F081264920
:103B200004F10800FDF748FD00283FD0B0F1804FB8
:103B30003FD28600304606F0ABFA8046A068E568C2
:103B40002D1A18EB050F04D048F80570A068E56839
:103B50002D1AAB0823D10435454408B106F094FA78
:103B600046442661C4F80880E560BDE8F081184647
:103B7000011D714503D0C1EB0E0293080AD17346B3
:103B8000043BC8F80C30002DBAD02B6828465B687F
:103B90009847B5E721F05EFED8F80C30F0E7014613
:103BA0002A46404621F056FEA068D4E706468046E5
:103BB000C4E70BF0E7F900BFD4DE0200F8B5044615
:103BC000344B416003603449344E0830FDF7ACFC9F
:103BD000002504F1200104F1280200274FF0FF33F3
:103BE00026622F48A06200262163A26323676462D5
:103BF000E462E56325646564A564E564256565653F
:103C0000A565E56525666566A56684F86C506567FB
:103C1000A567C4F88450C4F88850C4F88C50C4F820
:103C20009050C4F89450C4F89850C4F89C50C4E91B
:103C30002867142006F02CFA0346012219498560F2
:103C4000C4F8A8001A71DD601D611960C4F8AC5099
:103C5000C4F8B050C4F8B45084F8B850C4F8BC509C
:103C6000C4F8C050C4E93267C4E93467C4F8D85016
:103C7000C4F8DC50C4F8E05084F8E450042006F0A6
:103C800007FA094B0360014604F1A800FFF7BCFEE8
:103C90002046F8BDCCD20200C4E502004CD302009D
:103CA00098DC020068D2020024D2020038B5094C28
:103CB000094B2360E82006F0EBF921460546FFF7A3
:103CC0007DFF064BA56001221A600548BDE838401B
:103CD00020F05CBD8002002084DD0200580200203C
:103CE000F92E000008B5044B1B68DB0701D4FFF771
:103CF000DDFF024808BD00BF5802002080020020FE
:103D000008B5134B1B68DB0716D5124B9B689A6FDF
:103D1000CAB16032536891688B424FF0000015D0F1
:103D200013F8502B022A08BF01308B42F8D100282B
:103D3000D4BF0020012008BDFFF7B8FF054B9B68EA
:103D40009A6F002AE5D103F18002E3E708BD00BFC6
:103D5000580200208002002010B50E4821F06EFAB3
:103D600040B10D49044620F0EFFF20B1BDE81040FE
:103D700020F0CABD10BD2246064B08490120FFF7BE
:103D800011FB074B1B68986820F078FE012020F09B
:103D900055FD00BFBCDC02007CE1020080E10200B6
:103DA000F80000202DE9F047C16C846C091B8B08DA
:103DB0004ED081464FF0000854F828703A6A7B6A6A
:103DC0009B1A98083FD00026344652F8265095F8A2
:103DD0005A1079B3002C46D0A9693D4822F0FCF86E
:103DE0006B6B03B31B68F3B13A493B4822F0F4F81C
:103DF0006B6BC3B11D68B5B195F9000098B1002493
:103E000007E022F03FF915F9010F013458B1F92C00
:103E100025DC0A28F5D1314822F0DEF815F9010F2A
:103E200002340028F3D10A2022F02CF93A6A7B6A86
:103E300001249B1A0136B6EBA30FC6D3D9F848402C
:103E4000D9F84C10091B08F10108B8EBA10FB3D346
:103E5000234B1B68BDE8F047986820F00FBE21484F
:103E600022F0BAF8DFE779681F4822F0B5F8FB695D
:103E700013B31B6803B31D49174822F0ADF8FB6963
:103E8000D3B1D3F800A0BAF1000F15D09AF9000011
:103E900040B911E022F0F6F81AF9010F013458B1D7
:103EA000F92C0DDC0A28F5D10C4822F095F81AF906
:103EB000010F02340028F3D10A2022F0E3F88BE747
:103EC000084822F089F80A2022F0DCF884E700BFD5
:103ED000F0E1020060DD0200E4E102001CDF02000C
:103EE000F800002074F50200E0E1020024DE020088
:103EF000704700BFF8B50D46074623F009F82E6855
:103F0000044639463046224623F00AF818B93444AC
:103F10002C600120F8BD0020F8BD00BF10B582B0B4
:103F2000022217490190044622F0FAFF48B9A01C6A
:103F3000144901900F2222F0F3FF70B9002002B063
:103F400010BD01A91048FFF7D5FF90B101980D49A8
:103F50000F2222F0E5FF0028F0D001A90B48FFF75F
:103F6000C9FF0028EBD101A90948FFF7C3FF02B040
:103F700010BD01A90748FFF7BDFF0028E6D1DDE726
:103F8000F8E10200FCE1020014E202007CDF020022
:103F90000CE2020068E20200F0B593B0002842D0C3
:103FA00000293ED00D460446204906A81646FDF7D6
:103FB000BBFA1F4906A818F055FE01460CA818F0D8
:103FC0007EFC29460CA818F04DFE0146684618F004
:103FD00076FC0C980EAB984201D006F055F8069886
:103FE00008AB984201D006F04FF89DE8A0002046AB
:103FF0003A46294622F094FF48B1002402AB9D4284
:1040000002D0284606F040F8204613B0F0BDE11972
:10401000E35716B10BB90C46F0E73D2BEDD14C1C24
:10402000ECE70C46F0E70446EEE700BFF8E10200DB
:104030007CDF020010B514460122FFF7ADFF50B13E
:1040400090F90030302B07D023F02003463B18BFF7
:1040500001232370012010BD0023FAE730B5154677
:1040600083B00022FFF798FF044658B122F050FFBA
:104070006A68009023462846002118F025FD01209B
:1040800003B030BD03B030BDF0B5046883B0B4B345
:1040900005464068013006F00CF86F6800217A1C74
:1040A000064621F0F2FB94F90030ABB1324604E051
:1040B00094F90130013410467BB102F8013B94F9C8
:1040C00000302F2BF4D114F9013F2F2BF3D114F929
:1040D000013F2F2BF7D0EEE7304600240470304626
:1040E00022F016FF214600903A462846334618F043
:1040F000EBFC304603B0BDE8F04005F0C3BF034918
:1041000003B0BDE8F04018F063BD00BFC4E5020095
:1041100000F1080310B503600B684A6804461946AD
:104120001A44FDF7D1F92046FFF7AEFF204610BD37
:1041300070B50E688CB004462F21304622F005FF82
:1041400002AD0023009501938DF8083018B3421C8E
:10415000314606A808AE0696FDF7B6F9684606A9E8
:1041600018F0B2FD0698B04201D005F08DFF9DE831
:10417000060004F108030A4423602046FDF7A4F971
:104180002046FFF781FF0098A84201D005F07CFF90
:1041900020460CB070BD6846014918F019FDE6E7ED
:1041A000F4D2020030B54A6887B0044622B10B68E9
:1041B000501E1D562F2D0AD004F1080323600968F4
:1041C00020460A44FDF780F9204607B030BD824200
:1041D00094BF9A181A18194602AD68460095FDF763
:1041E00073F99DE8060004F108030A4423602046A1
:1041F000FDF76AF92046FFF747FF0098A842E3D091
:1042000005F042FF204607B030BD00BF10B543683F
:1042100096B04BB10268134413F9013C2F2B07D021
:104220000024204616B010BD1C46204616B010BD16
:10423000044607A9104623F029FE28B9089B03F479
:104240007043B3F5804F1AD0214607A8FFF7AAFFA5
:1042500001A807A9FFF76CFF079809AB984201D0A6
:1042600005F012FF01A8FFF7D1FF0446019803AB48
:104270009842DAD005F008FF204616B010BD0124A0
:10428000D3E700BF70B54B6894B015460446002BC9
:104290003BD002A8FFF786FF0299039A08A80A44B8
:1042A0000AAE0896FDF710F92F2309990093002212
:1042B000012308A818F082FB95E8060008A818F06A
:1042C00096FC01460EA818F0FAFA0E990F9A04F11E
:1042D000080323600A442046FDF7F6F82046FFF75E
:1042E000D3FE0E9810AB984201D005F0CDFE089891
:1042F000B04201D005F0C8FE029804AB984201D04C
:1043000005F0C2FE204614B070BD00F10803036042
:104310001368526819461A44FDF7D6F8204614B0BF
:1043200070BD00BF70B58CB0244904466846FDF7E7
:10433000FBF8234B08AD1B68069593E8060006A81A
:104340000A44FDF7C1F806A8FFF79EFE684606A9D5
:1043500018F03AFA0698A84201D005F095FE009EA2
:104360002F21304622F0F1FDE8B1411C06A8FDF7EF
:10437000DBF80699079A04F108030A4423602046F3
:10438000FDF7A2F82046FFF77FFE0698A84201D06D
:1043900005F07AFE009802AB984201D005F074FE59
:1043A00020460CB070BD019A04F108033244314636
:1043B00023602046FDF788F8ECE700BFC4E5020063
:1043C000C80200202DE9F04102220F46804608462F
:1043D000002120F085FD384620F018FE054605F046
:1043E00068FE002206461146384620F079FD00247A
:1043F00001E0AC4208D22A1B30193B46012120F0D3
:104400005FFD04440028F4D108F108033219C8F80C
:10441000003031464046FDF757F8304605F032FE91
:104420004046BDE8F08100BFF0B589B008AB00247C
:1044300043F8204D0C4606461946154620460A22EA
:1044400023F076FC009B93F9003043B900F1004360
:10445000013B03334FD82860012009B0F0BD01AF04
:104460003846FDF745FC01983E4908301AF064FCD7
:104470000198316802AE00F108053046FDF7AAFF49
:104480002846039A02991AF00FFC029804ADA8423C
:1044900001D005F0F9FD0198334908301AF04CFCC1
:1044A0000198324908301AF047FC002C56D0019888
:1044B000214608301AF040FC01982D4908301AF0C6
:1044C0003BFC30460199FDF785FF0299294821F010
:1044D00083FD0298A84201D005F0D6FD264B1B684B
:1044E000986820F0CBFA019810B103685B68984790
:1044F000002009B0F0BD01AF3846FDF7F9FB019887
:10450000184908301AF018FC0198316802AE00F121
:1045100008053046FDF75EFF2846039A02991AF017
:10452000C3FB029804ADA84201D005F0ADFD01988F
:104530000D4908301AF000FC0198104908301AF0B3
:10454000FBFB3CB10198214608301AF0F5FB0198BD
:104550000B49B3E73846FDF7F5F9F8E73846FDF7BC
:10456000F1F9A9E76CE2020078E20200ACE2020095
:10457000BCE2020004E50200F8000020C0E20200F4
:10458000CCE2020070B582B00C46064620F056FE22
:10459000E8B1054601A8FDF7ABFB019811490830C9
:1045A0001AF0CAFB0198AEB1314608301AF0C4FBCC
:1045B000294601A86A46FFF737FF0446019810B163
:1045C00003685B68984754B1009802B070BD2046FC
:1045D00002B070BD044908301AF0AEFBE8E70120D4
:1045E00020F02CF9E0E20200CCDE020070B50D46AE
:1045F00088B04FF0FF31FFF7C5FF4FF0FF310446A1
:104600002846FFF7BFFF611C05460CD0431C00F095
:104610009780002851DB84424FDD012CD4BF00205D
:10462000012008B070BD421C45D002AE3046FDF7F7
:104630005FFB0298554908301AF07EFB02985449F6
:1046400008301AF079FB0298524908301AF074FBCE
:104650000298294608301AF0CCFB02984E490830DF
:104660001AF06AFB02984D4908301AF065FB02986F
:104670004B4908301AF060FB314601A8FDF73AFFBC
:10468000029810B103685B68984730460199FDF7BE
:10469000A1FE01200299FEF785FE029804AB984224
:1046A00001D005F0F1FC3F4B1B68986820F0E6F95B
:1046B000012020F0C3F80020B3E702AE3046FDF73A
:1046C00017FB0298384908301AF036FB0298304937
:1046D00008301AF031FB0298344908301AF02CFBEC
:1046E00002982E4908301AF027FB0298304908300A
:1046F0001AF022FB0298264908301AF01DFB029896
:104700002C4908301AF018FB0298294608301AF094
:1047100070FB0298284908301AF00EFB02981F49D6
:1047200008301AF009FB0298224908301AF004FBFD
:104730000298214608301AF05CFB02981F4998E75E
:1047400002AE3046FDF7D4FA0298104908301AF04C
:10475000F3FA0298114908301AF0EEFA02980D495E
:1047600008301AF0E9FA0298214608301AF041FBA5
:104770000298094908301AF0DFFA02980449083013
:104780001AF0DAFA0298064973E700BF04E3020060
:1047900010DE020030E3020034E30200A4D2020083
:1047A00048E30200F800002054E3020084E3020022
:1047B00088E3020078E10200CCE8020040E6020053
:1047C0002DE9F04F91B08B460390002900F0B380A3
:1047D0004FF0FF3ACDF804A001468A6CCB6C9B1ACF
:1047E0009B1000F0B6800023029300939846029B32
:1047F00052F823707C6806AB0493002C00F098807C
:10480000204622F085FB2218214604A8FCF75CFE16
:104810003A6A7B6A9B1A00269B0887F8406041D061
:104820000DF1300952F82650CDF82890AC69002CD3
:104830007BD0204622F06CFB221821460AA8FCF708
:1048400043FE464A049C05E0104621F033FE002852
:1048500052D0421C21461046FDF7FEF83A210028AE
:10486000F2D0012385F859300AA904A8FDF730F9E0
:104870003B4B85F85A001B7883BB0022002385F848
:10488000583097F8403090440A9887F840304845AF
:1048900001D005F0F9FB3A6A7B6A01369B1AB6EB48
:1048A000A30FBFD3049806AB984201D005F0ECFBF0
:1048B00003998A6CCB6C02999B1A0131B1EBA30F5F
:1048C000029194D3009811B0BDE8F08F85F859009B
:1048D0000AA904A8FDF7FCF885F85A000028CCD0F6
:1048E000BBF1010F19D098FBFAF3019A0AFB13836D
:1048F0009A4212D00122C1E70A9C184A05E01046EC
:1049000021F0D8FD0028E1D0421C21461046FDF7D9
:10491000A3F83A210028F2D0A3E7009A01231A4411
:104920009844009285F85830AEE74FF0FF3284E7A4
:104930004FF0FF3268E74FF0FF310A48FFF722FEE1
:104940004FF0FF3182460848FFF71CFE03990190A3
:1049500043E71846009311B0BDE8F08F20DD020058
:10496000C5020020A4D2020010DE020070B5164677
:1049700082B000220D46FFF70FFB0446C0B101A82C
:10498000FDF7B6F901980E4908301AF0D5F90198EB
:104990008DB1294608301AF0CFF92146324601A8D8
:1049A000FFF742FD0446019810B103685B68984721
:1049B000204602B070BD034908301AF0BDF9ECE79B
:1049C00098E30200CCDE020010B53C4A3C490446A4
:1049D000FFF730FB08B1012010BD3A4A3A492046A2
:1049E000FFF728FB0028F6D1384A39492046FFF75F
:1049F00021FB0028EFD1374A37492046FFF72EFB2D
:104A00000028E8D1354A36492046FFF727FB002821
:104A1000E1D1344A34492046FFF70CFB0028DAD1B3
:104A2000324A33492046FFF719FB0028D3D1314AD7
:104A300031492046FFF712FB0028CCD12F4A3049DC
:104A40002046FFF7F7FA0028C5D12E4A2E49204606
:104A5000FFF704FB0028BED12C4A2D492046FFF762
:104A6000E9FA0028B7D12B4A2B492046FFF77EFFF1
:104A70000028B0D1294A2A492046FFF777FF0028AD
:104A8000A9D1284A28492046FFF7D4FA0028A2D104
:104A9000264A27492046FFF769FF00289BD1254A6F
:104AA00025492046FFF7DAFA002894D12046234A08
:104AB0002349BDE81040FFF7BDBA00BFC502002082
:104AC00000D3020060020020D4DC02004803002072
:104AD00038DD0200F802002018D30200680200202E
:104AE00030D302005602002058D30200AC0200204E
:104AF0006CDD02003003002074DC0200DC020020C8
:104B000014DD0200E0020020D4D20200DD02002009
:104B100008DD02005C020020D0DD0200D802002087
:104B200000DD0200D4020020F8D202008C02002036
:104B3000E0D20200940200204CDD0200900200202E
:104B4000DCDD020010B586B00C4601466846FDF774
:104B5000F1FC009820F072FB28B1074921F0B8FC65
:104B6000041C18BF0124009802AB984201D005F044
:104B70008BFA204606B010BD94D0020030B58FB03D
:104B80000C46014602A8FDF7D5FC029820F056FB22
:104B9000E0B1054608A80094FDF7AAF80898204956
:104BA00008301AF0C9F80898039A029908301AF0E8
:104BB0007BF8294608A86A46FFF736FC05460898A0
:104BC00010B103685B6898474DB1009C029804AB34
:104BD000984201D005F058FA20460FB030BD01A828
:104BE000FDF786F80198214608301AF002F908A866
:104BF0000199FDF7EFFB08990A4821F0EDF90898B3
:104C00000AAB984201D005F03FFA019810B1036851
:104C10005B689847044B1B6898681FF02FFFD5E727
:104C2000B0E30200C8E30200F800002070B58CB0C9
:104C30000446684616460D46FDF77CFC009820F0B9
:104C4000FDFA60B101462046FCF76EFC009802AB0D
:104C5000984201D005F018FA20460CB070BD2846E5
:104C6000104921F035FCB8B90F4820F0E7FA0546A5
:104C700090B10E4906A8FCF757FC294606A817F084
:104C8000F1FF0146204617F01AFE069808AB98423D
:104C9000DCD005F0F9F9D9E731462046FCF744FCB1
:104CA000D4E700BFE8E30200F0E3020000E4020002
:104CB000F0B54F680C4651F8083B15468B425268D8
:104CC00018BFA168064608BF0F21B818884283B0F4
:104CD00014D9AE465EF8081B714514BFD5F808E03C
:104CE0004FF00F0E70450BD9204617F080FF01469C
:104CF000304617F0E4FD304603B0F0BD2968F3E715
:104D0000002200972846114617F0DEFEEFE700BFAD
:104D1000F8B590E86000B54207460ED005F10804EA
:104D200054F8080CA04205F1180504F1180401D04C
:104D300005F0AAF9AE42F3D13E6816B1304605F04F
:104D4000A3F93846F8BD00BF70B5174B82B002AC6E
:104D500004E906001B68009D019CD90706461FD583
:104D6000124B9B6893F8E4304BB1E20709D564100D
:104D7000301933595B5902B0BDE870401847E3075A
:104D800006D406EB64002B4602B0BDE8704018471D
:104D90006310F018F3585B5902B0BDE87040184733
:104DA000FEF784FFDCE700BF5802002080020020ED
:104DB00070B5334B1B68DB0786B005463FD5314BDA
:104DC0009C68D4F8B40000284AD003682E4EDB68F3
:104DD000B34237D12D4A2E4B92E8030004AA82E851
:104DE0000300284606CAFFF7AFFFFEF789FF90B918
:104DF000D4F8B40000283BD00368DB68B34225D167
:104E0000244A254B92E8030002AA82E803002846C0
:104E100006CAFFF799FFD4F8B400C8B10368DB688D
:104E2000B34211D11D4A1E4B92E803008DE80300E6
:104E300028469DE80600FFF787FF06B070BDFEF725
:104E400035FFBCE79847C5E79847EBE79847D7E7B2
:104E5000042005F01DF9134A0260C4F8B400DDE730
:104E6000042005F015F90F4A0260C4F8B400ACE75D
:104E7000042005F00DF90B4A0260C4F8B400BBE74A
:104E80005802002080020020E113000004D202003A
:104E9000C8E402000CD20200D0E4020014D20200E6
:104EA000E0E40200ACDC020030B583B0044601A8A7
:104EB0000D46FCF71DFF01982968083019F099FF8D
:104EC00020460199FDF786FA019810B103685B68E6
:104ED0009847204603B030BD70B58EB004460191AE
:104EE00002A801A91D461646FFF7DEFF114902A8D8
:104EF00017F0B8FE014608A817F0E1FC019908A8D0
:104F000001290CBF3146294617F0ACFE0146204668
:104F100017F0D5FC08980AAB984201D005F0B4F818
:104F2000029804AB984201D005F0AEF820460EB0CE
:104F300070BD00BFE0E8020010B50B6A486A83420A
:104F40000C4686B04FF0000108D053F8042B92F9BC
:104F50005820002A18BF01318342F6D1134B144A5E
:104F60006846FFF7B9FF13490220FEF74BF9626864
:104F70000099114821F030F8E36993B11A6882B1C1
:104F80000E490F4821F028F80E4B1B6898681FF057
:104F900075FD009802AB984201D005F075F806B097
:104FA00010BD0A2021F06EF8EEE700BFECE402002D
:104FB000F4E40200B4E00200FCE4020024DE02009B
:104FC00008E50200F8000020F0B54C4B1B68012BEF
:104FD0008DB00E4603D0511C494820F0FDFF494BCF
:104FE0001C68002C61D04849204621F071FA002845
:104FF0005BD146494648FFF7F9FA002861D1454B95
:105000001B78002B70D144490220FEF7FBF8B368EF
:105010009D6CDF6C7B1B9B106ED0002155F8042B20
:10502000136A546A9C424FF0000208D053F8040BF4
:1050300090F95800002818BF01329C42F6D1AF42C7
:105040001144EBD1354B364A6846FFF745FFB2684D
:10505000009C936CD06C83424FF0000108D053F851
:10506000042B92F94020002A18BF01318342F6D167
:105070002C4B2D4A06A8FFF72FFF2146069A2B48F6
:1050800020F0AAFF069808AB984201D004F0FCFF7C
:10509000009802AB984201D004F0F6FF244B1B6845
:1050A00098681FF0EBFC0DB0F0BD2249224A0320A6
:1050B0002346FEF733F915491548FFF797FA0028FC
:1050C0009DD04FF0FF311148FFF75CFA04461048BD
:1050D00020F0B4F8621C034618490320FEF71EF9BD
:1050E0000C4B1B78002B8ED0B3681549D3F8BC202D
:1050F0000320FEF713F986E71946A3E7D80200203C
:105100001CE50200AC020020DCD2020010DE02002E
:10511000A4D20200D4020020C8E50200ECE40200A0
:10512000F4E40200D8E50200E4E50200F0E5020044
:10513000F800002054E5020048E502006CE502009A
:1051400090E50200D0B516461F46E6B004464FF47F
:105150007A720023304639461FF03CF95DA902906F
:1051600002A820F03BF9002800F0BB80629B01A957
:1051700003F26C7303A80193FFF796FE5C4903A842
:1051800017F070FD014609A817F099FB61990FA867
:105190000131FDF77FF80FAA09A915A8FFF788FDCF
:1051A000534915A817F05EFD01461BA817F087FBB1
:1051B00021A86099FDF76EF821AA1BA927A8FFF77F
:1051C00077FD4C4927A817F04DFD01462DA817F093
:1051D00076FB33A85F99FDF75DF833AA2DA939A8AE
:1051E000FFF766FD444939A817F03CFD01463FA88A
:1051F00017F065FB45A85E99FDF74CF845AA3FA955
:105200004BA8FFF755FD3C494BA817F02BFD014675
:1052100051A817F054FB57A85D99FDF73BF82046BD
:1052200057AA51A9FFF744FD579859AB984201D0AE
:1052300004F02AFF519853AB984201D004F024FFA8
:105240004B984DAB984201D004F01EFF459847ABF8
:10525000984201D004F018FF3F9841AB984201D02A
:1052600004F012FF39983BAB984201D004F00CFFD8
:10527000339835AB984201D004F006FF2D982FAB40
:10528000984201D004F000FF279829AB984201D042
:1052900004F0FAFE219823AB984201D004F0F4FE0A
:1052A0001B981DAB984201D004F0EEFE159817AB89
:1052B000984201D004F0E8FE0F9811AB984201D05B
:1052C00004F0E2FE09980BAB984201D004F0DCFE3A
:1052D000039805AB984201D004F0D6FE204666B094
:1052E000D0BD06492046FCF71FF9204666B0D0BD68
:1052F00014E2020008E6020094E40200C4E50200A1
:105300002DE9F043884606CAA7B0002404AF06463C
:105310000193029703948DF810400A44002B3FD16B
:105320001AA80DF17009CDF86890FCF7CDF83F4947
:105330001AA817F097FC2E991AA817F093FC20AC26
:105340000146204617F0BBFA02A8214617F0BCFC24
:10535000209822ADA84201D004F096FE1A98484544
:1053600001D004F091FE0299039A20950A44204648
:10537000FCF7AAF82046FEF787FE30462246414653
:10538000FEF780FF2098A84201D004F07DFE02982D
:10539000B84201D004F078FE304627B0BDE8F08373
:1053A00008A80DF12809CDF82090FCF78DF82049C8
:1053B00008A817F057FC0EA801A9FFF775FD0EAA63
:1053C00008A914A8FFF774FC184914A817F04AFCA0
:1053D00001461AA817F073FA2E991AA817F042FC82
:1053E00020AC0146204617F06AFA02A8214617F0C1
:1053F0006BFC209822ADA84201D004F045FE1A981B
:105400001CAB984201D004F03FFE149816AB9842B2
:1054100001D004F039FE0E9810AB984201D004F090
:1054200033FE089848459CD19DE700BF84E8020000
:1054300074F002002DE9F043894693B0114990467B
:105440001F460546FCF770F805AE00242346424689
:10545000494603A80097FFF753FF284603A917F012
:10546000B3F90398B04204F1010401D004F00CFE3A
:1054700003A9286822F00AFD0028E7D0284613B0C7
:10548000BDE8F083C4E5020070B5744B1B68A4B09E
:105490000446002B00F0DE8018463A2121F00AF87D
:1054A000002800F09080451C29461EA8FCF73CF817
:1054B0001EA96846FEF72CFE1E9820AEB04201D011
:1054C00004F0E2FD009991F900302F2B3DD0644BA0
:1054D0001B68DB0740F1B880624B9B6806A899689F
:1054E000FCF722F806A90CA8FEF712FE294612A81E
:1054F000FCF71AF812A918A8FEF70AFE18AA0CA9B8
:105500001EA8FEF7BFFE68461EA917F05DF91E989B
:10551000B04201D004F0B8FD18981AAB984201D0FF
:1055200004F0B2FD129814AB984201D004F0ACFD27
:105530000C980EAB984201D004F0A6FD069808AB7B
:10554000984201D004F0A0FD0099019A7AB90A4668
:1055500004F1080323602046FBF7B6FF009802AB76
:10556000984201D004F090FD204624B070BD0A445A
:1055700012F9013C2F2BEBD118A8FEF7D3FE1EA881
:10558000FCF748FA12A818AA69461E9BFFF752FFBB
:105590001E98B04201D004F077FD18981AAB9842DB
:1055A00001D004F071FD1299139A04F108032360ED
:1055B00020460A44FBF788FF129814AB9842CDD0DE
:1055C00004F062FDCAE7264B1B68DA073FD5254B7E
:1055D0009B6806A89968FBF7A7FF06A90CA8FEF729
:1055E00097FD214912A8FBF79FFF12A918A8FEF703
:1055F0008FFD18AA0CA91EA8FEF744FE1E991F9A3B
:1056000004F10803236020460A44FBF75DFF1E985F
:1056100020AB984201D004F037FD18981AAB98429D
:1056200001D004F031FD129814AB984201D004F07F
:105630002BFD0C980EAB984201D004F025FD069886
:1056400008AB98428ED18FE7FEF730FB44E7FEF7B8
:105650002DFBBCE70549FBF767FF85E7E00200206B
:10566000580200208002002020D30200C4E502007E
:1056700070B52D4B1C688CB00646002C4ED03A21DC
:10568000204620F017FF6D46002842D0024602ABAC
:10569000214668460093FBF717FF2449284617F078
:1056A000B1FBA8B906A8FFF7EFFE1C20069D04F089
:1056B000EFFC1F4B0446294640F8043BFBF734FF40
:1056C000636806F1A8000BB1A36873B9FBF7E8FEA5
:1056D0002846184917F096FB88B9009802AB984203
:1056E00001D004F0D1FC0CB070BD2146FEF7E2F908
:1056F000069808AB9842F0D004F0C6FCEDE700999C
:105700000D4820F069FC0D4B1B6898681FF0B6F936
:10571000E3E721466846FBF707FFBEE76846054911
:105720006D46FBF701FFB8E7E00200200CE602003F
:1057300094DD0200C4E5020010E60200F80000203B
:1057400030B5284B9BB0002908BF1946044602A873
:105750000192FBF7E9FE019B0299039A002B34DBCF
:105760000A4408A80AAD0895FBF7AEFE1E4908A832
:1057700017F078FA0EA801A9FFF796FB0EAA08A960
:1057800014A8FFF795FA184914A817F06BFA014608
:10579000204617F094F8149816AB984201D004F004
:1057A00073FC0E9810AB984201D004F06DFC089881
:1057B000A84201D004F068FC029804AB984201D0E2
:1057C00004F062FC20461BB030BD04F108030A441B
:1057D00020462360FBF778FE0349204617F042FA83
:1057E000EAE700BF30DE020094E40200F0B50446B0
:1057F00087B0017016461F4639B1012926D0144AD8
:10580000144D022908BF154600E0134D134819F046
:105810007FF9294619F090FA01221149054619F03D
:1058200043FA3A4631466846FFF78AFF0099284610
:1058300019F082FA0B4919F07FFA009802AB9842EE
:1058400001D004F021FC204607B0F0BD064DDDE795
:1058500018E802000CE8020000E80200F011002045
:10586000E0E80200F0EF0200F4E7020070B5304B10
:105870000546006803FB00F303F54053393323F07A
:10588000004382B02B600C46002937D0B1F1004FA5
:105890002ED940F2E563274A032101A8FFF7A6FFAE
:1058A00025222549254819F0FFF91E2224492348BD
:1058B00019F0FAF92146214819F09FFA11220646FB
:1058C000204919F0F1F92A221F49304619F0ECF964
:1058D0004FF00041304619F090FA1C4919F02CFAAB
:1058E000164819F015F99DF80430032B1DD02B68CC
:1058F000B3FBF4F004FB103002B070BD40F2E36380
:105900000C4A03216846FFF771FF1C2210490B481F
:1059100019F0CAF90F49094819F00EFA074819F0A9
:10592000F7F89DF80030032BE1D1FBF7AFFD00BF86
:105930006D4EC64124E8020088E80200F011002004
:10594000B0E80200D0E80200E4E8020010E902003A
:1059500038E8020058E80200F0B50C4683B006466D
:105960003E49204617F04EFA002847D03C492046D1
:1059700017F048FA48B33B49204617F043FA00288D
:1059800053D040F6F153384A032101A8FFF72EFF08
:1059900018223649364819F087F923223549344808
:1059A00019F082F994E80600314819F07DF9304881
:1059B00019F0AEF89DF80430032B4DD0002330468B
:1059C00033607360B36003B0F0BD30607060B0608E
:1059D000902004F05DFB284D306000F190070446F4
:1059E000B76055F8041B14B12046FBF79DFD183431
:1059F000A742F6D17760304603B0F0BD30607060EA
:105A0000B060C02004F044FB1C4D306000F1C007C2
:105A10000446B76055F8041F14B12046FBF784FD17
:105A20001834A742F6D17760E5E730607060B06067
:105A3000902004F02DFB124D306000F190070446D9
:105A4000B76055F8041B14B12046FBF76DFD183400
:105A5000A742F6D17760CEE7FBF718FD14E9020004
:105A600020E902002CE9020024E8020038E90200E3
:105A7000F011002054E902007CD30200ECDD0200AA
:105A8000E8DC02000B7803B9704710B50C468EB005
:105A900001A8FCF72DF9A168002944D1E26908A802
:105AA000FFF74EFE0198099A0899083019F0FCF8A2
:105AB000019821490122083019F0F6F82278002ACD
:105AC00033D01E4B1E49022A88BF19460198083060
:105AD00019F032F9A16B019849B3083019F02CF98B
